:100000000C9437000C94A00F0C94A00F0C94A00F2C
:100010000C94A00F0C94A00F0C94A00F0C94A00FA4
:100020000C94A00F0C94A00F0C94A00F0C94A00F94
:100030000C94A00F0C94A00F0C94A00F0C94A00F84
:100040000C94A00F0C94A00F0C94A00F0C94A00F74
:100050000C94A00F0C94A00F0C94A00F0C94A00F64
:100060000C94A00F0C94A00F010001028000112439
:100070001FBECFEFD8E0DEBFCDBFE8E6F0E040E046
:1000800017C0B591A59135912591059107FD0CC03B
:1000900095918591EF01F92FE82F05900D92A21708
:1000A000B307D9F7FE0104C01D92A217B307E1F709
:1000B000ED36F40731F70E94EE070C944C0FF894DC
:0200C000FFCF70
:1000C20025640044697374616E63653A2000636558
:0A00D2006E74696D65747265730049
:1000DC0068076C094C836A9074A07AC000806888A9
:0600EC0000846C8200811B
:0700F200286E756C6C2900FB
:0600F900286E696C29006D
:10010000A3EAB0E0E6E8F0E00C94410E4C0159019E
:10011000C756DF4F488359836A83C959D040212C81
:10012000312C6E012BE8C20ED11C85E2782E2601FF
:1001300030E8632ECE018D569F4FC456DF4F998312
:100140008883CC59D0409C0140E8CF55DF4F2883AD
:1001500039834A83C15AD040C756DF4F4881C959B5
:10016000D040C656DF4F5881CA59D040C556DF4FE0
:100170006881CB59D040FA01849167FD8081882342
:1001800009F4C9C3CF57DF4F19821882C158D04034
:100190008FEF9FEFCD57DF4F99838883C358D040AF
:1001A000CB57DF4F19821882C558D040A1E0B0E08C
:1001B000AC0FBD1FC957DF4FB983A883C758D040C4
:1001C000E0E8F0E0C757DF4FF983E883C958D04033
:1001D000CA01A62FE12CF12CFC012491A7FD20815E
:1001E00021111BC0E114F10401F19701C4010E9427
:1001F000340DC756DF4F88819981AA81C959D040F3
:100200008E0D9F1DA11DF7FCAA95C756DF4F888351
:100210009983AA83C959D04008C00196A11D2532EF
:1002200009F3FFEFEF1AFF0AD7CFC756DF4F8881D8
:100230009981AA81C959D040FC012491A7FD208150
:10024000253209F056C39C014A2F2F5F3F4F4F4F75
:10025000C256DF4F288339834A83CE59D040C756D0
:10026000DF4F288339834A83C959D040C756DF4FAF
:1002700088819981AA81C959D040FC012491A7FDA8
:1002800020812B3241F4CF57DF4F28813981C1586B
:10029000D04024600BC02C32CCF02D3259F5CF5712
:1002A000DF4F28813981C158D0402160CF57DF4FBF
:1002B00039832883C158D0400196A11DC756DF4F0E
:1002C00088839983AA83C959D040D0CF203241F482
:1002D000CF57DF4F28813981C158D0402860E6CF01
:1002E000233291F4CF57DF4F28813981C158D04054
:1002F0002061DCCF203341F4CF57DF4F2881398193
:10030000C158D0402260D2CF2A3299F50196A11D62
:10031000C756DF4F88839983AA83C959D040D50136
:10032000ED91FC911197CF0102968D939C93808162
:100330009181CB57DF4F99838883C558D04097FF71
:100340003EC0CF57DF4F28813981C158D040B1E03E
:100350002B27CF57DF4F39832883C158D040919541
:1003600081959109CB57DF4F99838883C558D04039
:1003700026C0BC018A2F0E94AF0CCB57DF4F998358
:100380008883C558D040C756DF4F288139814A81BC
:10039000C959D040F901849147FD8081082E000C95
:1003A000990BC0970A9758F42F5F3F4F4F4FC7568E
:1003B000DF4F288339834A83C959D040E4CFCF57D0
:1003C000DF4F88819981C158D04080FF07C08D7F61
:1003D000CF57DF4F99838883C158D040C756DF4F2E
:1003E00088819981AA81C959D040FC012491A7FD37
:1003F00020812E3209F058C0CD57DF4F1982188264
:10040000C358D0409C014A2F2F5F3F4F4F4FC756D4
:10041000DF4F288339834A83C959D040F901549169
:1004200047FD50815A32D1F40296A11DC756DF4FC5
:1004300088839983AA83C959D040D501ED91FC9155
:100440001197CF0102968D939C9380819181CD5716
:10045000DF4F99838883C358D04026C0842FB901C9
:100460000E94AF0CCD57DF4F99838883C358D0408B
:10047000C756DF4F288139814A81C959D040F901D7
:10048000849147FD8081082E000C990BC0970A9734
:1004900058F42F5F3F4F4F4FC756DF4F28833983A4
:1004A0004A83C959D040E4CFCE0187569F4F0E945E
:1004B000170C182FC756DF4F2881C959D040C65690
:1004C000DF4F8881CA59D040C556DF4F9881CB593C
:1004D000D040E22FF82F849197FD8081082E000CE8
:1004E000990B0E94690F8936910509F45AC0B4F43A
:1004F0008336910509F466C144F48532910509F407
:10050000A1C18136910529F1B3C18436910509F461
:1005100048C0883691050CF42DC1AAC180379105D9
:1005200009F4CBC04CF48E36910509F419C18F360D
:10053000910509F47CC09CC18537910509F454C02C
:100540008837910509F496C08337910509F090C169
:1005500058C1612F70E0A501C6010E94030E892BCE
:1005600009F4B7C1C756DF4F88819981AA81C9595B
:10057000D0409C014A2F2F5F3F4F4F4FC756DF4F50
:10058000288339834A83C959D040FC012491A7FDAF
:100590002081A601BE016F577F4FC4010E949D0FAD
:1005A00095C1612F70E0950141E050E0C6010E94C5
:1005B0009006892B09F48DC1C756DF4F8881998138
:1005C000AA81C959D0400196A11DC756DF4F888323
:1005D0009983AA83C959D040A601BE016F577F4FA6
:1005E000C4010E94D10572C1612F70E0950140E005
:1005F00050E0C6010E949006892B09F46AC1C756D3
:10060000DF4F88819981AA81C959D0400196A11DE7
:10061000C756DF4F88839983AA83C959D040A60162
:10062000BE016F577F4FC4010E941C0B4FC1612F49
:1006300070E0950140E050E0C6010E949006892BD1
:1006400009F447C1C756DF4F88819981AA81C959EA
:10065000D0400196A11DC756DF4F88839983AA8396
:10066000C959D040A601BE016F577F4FC4010E94F7
:100670004D0A2CC1612F70E0950140E050E0C601A9
:100680000E949006892B09F424C1C756DF4F888148
:100690009981AA81C959D0409C014A2F2F5F3F4FB1
:1006A0004F4FC756DF4F288339834A83C959D040FB
:1006B000FC012491A7FD20814BC0950140E050E052
:1006C00060EF70E0C6010E949006892B09F401C119
:1006D000C756DF4F88819981AA81C959D0400196B8
:1006E000A11DC756DF4F88839983AA83C959D0407B
:1006F00086E029EF30E040E0F901DE01AD56BF4F62
:10070000742F0E941C0FD6012C9111963C911197C9
:1007100012964C91129713965C91139714966C91C4
:10072000149715967C91159716968C911697179697
:100730009C91A0E00E94350F51F400E010E0CF55ED
:10074000DF4F288139814A81C15AD040B9C028E79A
:10075000A601BE016F577F4FC4010E949104B6C02D
:10076000612F70E09501A1014E0D5F1DC6010E9431
:100770007709AFC0612F70E0A501C6010E94030E8A
:10078000892B09F4A6C0C756DF4F88819981AA81B9
:10079000C959D0409C014A2F2F5F3F4F4F4FC7563A
:1007A000DF4F288339834A83C959D040FC01249103
:1007B000A7FD2081A601BE016F577F4FC4010E9493
:1007C0009D0F84C0103809F084C0C756DF4F888160
:1007D0009981AA81C959D0400196A11DC756DF4F02
:1007E00088839983AA83C959D040D501ED91FC91A2
:1007F0001197CF0102968D939C938081F60180839F
:100800005BC0103809F065C0C756DF4F88819981F9
:10081000AA81C959D0400196A11DC756DF4F8883D0
:100820009983AA83C959D040D501ED91FC911197C4
:10083000CF0103968D939C9320813181428100E00A
:1008400010E03EC0103809F044C0C756DF4F888121
:100850009981AA81C959D0400196A11DC756DF4F81
:1008600088839983AA83C959D040F601708224C035
:10087000D6017C92C256DF4F288139814A81CE59F8
:10088000D040C756DF4F288339834A83C959D040A7
:10089000CF57DF4F19821882C158D040CB57DF4F56
:1008A00019821882C558D0408FEF9FEFCD57DF4F88
:1008B00099838883C358D04001E010E0462D92010F
:1008C000BE016F577F4FC4010E94B70A8E0D9F1D56
:1008D00011C0C756DF4F88819981AA81C959D0407C
:1008E0000196A11DC756DF4F88839983AA83C959F2
:1008F000D040C7017101E80EF91EE214F3044CF474
:100900008FE490E090930101809300018FEF9FEFBF
:1009100003C0170121CCC101CD55DF4FE2E10C949A
:02092000780E4F
:10092200A4E1B0E0E7E9F4E00C94410E98878F83EC
:100932007A8369835C8B4B8B122FDB011296ED91CC
:10094200FC91139714962D913C9115973E832D831C
:10095200ED90FC90119716962D903C901797F7FD0D
:1009620003C0E894E1F802C0E1E0F0E0C701807161
:1009720099279A878987E4FE1FC0AB89BC892C918D
:1009820011963C91119712964C91129713965C9185
:10099200139714966C91149715967C911597169649
:1009A2008C91169717969C91A0E00E94350F21F02A
:1009B2008D819E81029702C08D819E819701287050
:1009C20033273C872B87E3FC0197AB89BC894C908A
:1009D20011965C90119712966C90129713967C90D8
:1009E200139714968C90149715969C9015971696BB
:1009F200AC9016971796BC90A981BA811896CD90A3
:100A0200DC901997B1E0CB1AD108D101AC0DBD1D14
:100A12001C929C838B839F01281B390B3E872D8759
:100A2200C70182709927988B8F87812F012E000C26
:100A3200990BDC01A154B109BA8BA98B32E0C31620
:100A4200D10434F489859A85892B09F04CC073C08E
:100A52009201A301B401C501A0E00E94350F81F10A
:100A6200B1E0CB1AD108C2018F7099278A30910563
:100A720014F4C09602C0895A9F4FE989FA897A977D
:100A820048F49C012062215631092A31310510F4C3
:100A92000E94600FF101EC0DFD1D80832B813C81D2
:100AA200215031093C832B839201A301B401C5017A
:100AB20004E00E94250E29013A014B015C01BECFE0
:100AC2008D859E85AB81BC818A0F9B1F18161906E6
:100AD2003CF21A161B060CF0B5CFEF85F889EF2B06
:100AE20009F0BECFAFCFAB89BC892C9111963C9156
:100AF200119712964C91129713965C911397149634
:100B02006C91149715967C91159716968C91169761
:100B120017969C91A0E00E94350F69F0F101EC0D4F
:100B2200FD1D31971083B2E0CB1AD108F101EC0D13
:100B3200FD1D80E38083EB85FC85EF2B41F0F1E026
:100B4200CF1AD108F101EC0DFD1D80E28083A9814D
:100B5200BA8118962D913C911997215031092C197F
:100B62003D09C20CD31CA60160E80D811E818F8154
:100B720098850E9481089C01EF81F885808191818E
:100B820090FF09C0A981BA8112968D919C91139709
:100B9200821793070CF4C9016496E2E10C94780E73
:100BA200ADE0B0E0E7EDF5E00C94410E9A8789875D
:100BB2007C836B83FA01DB011296CD90DC90139754
:100BC20014968D919C9115979E838D83ED90FC9048
:100BD2001197FA82E98216960D90BC91A02DB887E2
:100BE200AF8320803180428053806480758086800C
:100BF20097808101B42DF52DE62D7B868C869D860E
:100C02009101A201B301C401A0E00E94350F4CF48E
:100C12000E94FE0E8901B42FF52FE62F7B878C8769
:100C22009D87D7FC04C0E894E1F8FA82E982910139
:100C3200A201B301C401A0E0ED80FE800E94350F45
:100C42001CF0898182FF04C081E0E81AF10805C026
:100C520083FF03C091E0E91AF108CE0101965C011D
:100C62008AE0C82ED12C2B2F3F2F4E2F5B856C850F
:100C72007D858B819C810E944907FC019101A20123
:100C8200B301C401A0E00E94350F1CF0898182FFEC
:100C920012C031970F8118850E0F1F1F9101A201FB
:100CA200B301C401A0E00E94350F14F08BE201C031
:100CB2008DE2D80108C083FF07C03197AF81B885A4
:100CC200AE0FBF1F80E28C93E980FA80AB81BC81BA
:100CD20018962D913C911997215031092E1B3F0BEB
:100CE2008F819885E80FF91FAF0160E80D811E81A1
:100CF20089859A850E9481089C01A985BA858D9172
:100D02009C9190FF07C0EB81FC81828193818217C5
:0E0D120093070CF4C9012D96E2E10C94780EC3
:100D20000F931F93CF93DF93FC01D90168387105AE
:100D300031F194F461387105B1F12CF4603871052A
:100D400009F478C09FC06238710509F459C064384D
:100D5000710509F46FC096C0603A710509F448C086
:100D60002CF46039710509F44BC08CC0603C7105EE
:100D700009F476C0603F710509F472C083C0CD915B
:100D8000DC911197CE0102968D939C93452B39F0FF
:100D90009881892F880F880B908381835BC088811D
:100DA0008083118268C0CD91DC911197CE010496A9
:100DB0008D939C93452B99F088819981AA81BB8161
:100DC000AC01BD01770F440B542FBA01808391838E
:100DD000A283B383448345834683478328C0088125
:100DE00019812A813B81008311832283338345C08B
:100DF000CD91DC911197CE0102968D939C9323C0E7
:100E0000CD91DC911197CE0108968D939C937881BA
:100E100069815A814B813C812D819E818F817083B4
:100E2000618352834383348325839683878381E060
:100E300090E02AC0CD91DC911197CE0102968D935E
:100E40009C93452BA1F099812881892F880F880BCD
:100E50002083918382838383848385838683E6CF03
:100E6000CD91DC911197CE0102968D939C930881D0
:100E700019810083118312821382148215821682D3
:100E80001782D5CF80E090E0DF91CF911F910F9135
:020E90000895C3
:100E9200A2E1B0E0EFE4F7E00C94410EFC010A8B12
:100EA2001B832C83732E642E552E462E7D83CC8677
:100EB200D886BF82AE82868197819B878A87D50139
:100EC2004D915C91228133818085918501971C012E
:100ED20037FF02C021E030E0EA85FB85E80FF91F09
:100EE20010824701E1E0F0E0FA83E983C9018E193B
:100EF2009F099E878D87DA01A270BB27B88BAF87C7
:100F0200B885BB0FBB0BB98B1214130474F0A98103
:100F1200BA81AB2B09F05CC0AE81BF818D919C91EF
:100F220011978F7E8D939C9353C02A893B814C816C
:100F3200572D662D752D842D9D81A0E00E94350FC1
:100F4200B1F1E1E02E1A3108FC85F987AF2EB884A1
:100F5200C988DC2CEC2CFC2C0C2D1C2D2A893B8105
:100F62004C81572D662D752D842D9D810E940E0F6B
:100F7200C90129839A83EA85FB85E20DF31D805D11
:100F8200808381E0881A91082A893B814C81572D00
:100F9200662D752D842D9D810E94100F2A8B3B8317
:100FA2004C83752E662E572E482E9D83ADCF8D8590
:100FB2009E85880D991D181619061CF2181419041D
:100FC2000CF0A5CFEF85F889EF2B09F0BACF9FCFB0
:0A0FD200C1016296E2E10C94780E72
:100FDC00CF93DF93CDB7DEB764970FB6F894DEBF2F
:100FEC000FBECDBF0E94860F0E94930EFE0131965C
:100FFC0084E1DF011D928A95E9F7579A5F9801E821
:10100C0010E00F2EF4E8AF2EB12CF02D0F2EF6E8D9
:10101C00CF2ED12CF02D0F2EF2EC6F2EF0E07F2E78
:10102C00F0E08F2EF02D7F011F01F0E84F2E81E0B4
:10103C000E94970D5F9A2AE12A95F1F700C05F98FC
:10104C00D8018C9180648C93B59BFECFF5011182F5
:10105C001082B59AD8018C918F7B8C93B59BFECF67
:10106C00F60160817181B59A80E090E00E94F70CE6
:10107C0020E034E244E759E40E94920F20E030E093
:10108C004AEA53E40E94960F20E030E048EC52E428
:10109C000E94960F20E030E040E05FE30E94960F44
:1010AC000E94680D1F926F938F927F926F92FF92A6
:1010BC00EF920E94DA0E65EC70E080E00E945D0E0B
:1010CC00842DB1010E945D0E85EC0E94970D60EDA0
:1010DC0070E080E00E945D0EFFEF29E688E1F150A0
:1010EC0020408040E1F700C000000FB6F894DEBF4E
:0610FC000FBECDBF9CCF2A
:101102002F923F924F926F927F928F92AF92BF92A5
:10111200CF92DF92EF92FF920F931F93CF93DF93C1
:10112200CDB7DEB766970FB6F894DEBF0FBECDBF60
:101132005C013A01862E6901C701817099279C8B57
:101142008B8BE0FC1DC020173107D4F47801EC181A
:10115200FD08FE8AED8AA70191E1E916F10410F07B
:1011620040E150E060E270E0CE0101969A8B898BFB
:101172000E94570F89899A891C0120E8422E0BC0D0
:101182009601682DA301C5010E94340DC016D10637
:10119200ECF2C60125C090E1E916F10458F020E115
:1011A20030E0642DA101C5010E94340D80E1E81AEE
:1011B200F108F1CF2D893E892F70332789899A89C9
:1011C200AC0160E8C5010E94340D8B899C89892B92
:1011D20031F49601682DA301C5010E94340DC801A6
:1011E20066960FB6F894DEBF0FBECDBFDF91CF91EA
:1011F2001F910F91FF90EF90DF90CF90BF90AF9033
:0E1202008F907F906F904F903F902F900895A7
:1012100010C00E94780F58F00E94710F40F029F41E
:101220005F3F29F00C948C0F51110C94800F0C949B
:101230009A0F0E94E10D68F39923B1F3552391F3BE
:10124000951B550BBB27AA2762177307840738F035
:101250009F5F5F4F220F331F441FAA1FA9F335D092
:101260000E2E3AF0E0E832D091505040E695001C46
:10127000CAF72BD0FE2F29D0660F771F881FBB1F00
:10128000261737074807AB07B0E809F0BB0B802DDE
:10129000BF01FF2793585F4F3AF09E3F510578F00A
:1012A0000C948C0F0C94800F5F3FE4F3983ED4F3C2
:1012B000869577956795B795F7959F5FC9F7880FDE
:1012C000911D9695879597F90895E1E0660F771F30
:1012D000881FBB1F621773078407BA0720F0621BC1
:0E12E000730B840BBA0BEE1F88F7E095089590
:1012EE00CF93DF93DC01F90164387105D9F164F411
:1012FE006138710521F16238710509F440C060381A
:10130E00710509F054C02EC060397105C1F184F425
:10131E006838710509F04BC0C081D181CE010296AB
:10132E0091838083E881F981ED93FC9340833CC0E7
:10133E00603A7105B9F0603C7105A1F038C0C0810A
:10134E00D181CE01029691838083E881F981ED935C
:10135E00FC93052E000C660B770B40835183628342
:10136E00738322C0C081D181CE0102969183808386
:10137E00E881F981ED93FC935183408315C0C081C0
:10138E00D181CE01029691838083E881F981ED931C
:10139E00FC9351834083852F880F880B8283838330
:1013AE00848385838683878381E090E002C080E01A
:0813BE0090E0DF91CF9108954A
:1013C6000FC00E94710F38F00E94780F20F095230D
:1013D60011F00C948C0F0C949A0F11240C94800F1E
:1013E6000E94E10D70F3959FC1F3950F50E0551FD4
:1013F600629FF001729FBB27F00DB11D639FAA2764
:10140600F00DB11DAA1F649F6627B00DA11D661FB2
:10141600829F2227B00DA11D621F739FB00DA11DD3
:10142600621F839FA00D611D221F749F3327A00D8D
:10143600611D231F849F600D211D822F762F6A2F29
:1014460011249F5750409AF0F1F088234AF0EE0F8E
:10145600FF1FBB1F661F771F881F91505040A9F7BB
:101466009E3F510580F00C948C0F0C94800F5F3FCB
:10147600E4F3983ED4F3869577956795B795F795F7
:10148600E7959F5FC1F7FE2B880F911D969587956F
:0414960097F9089525
:10149A00A2E0B0E0E3E5FAE00C94410E1C014B0136
:1014AA00FA01DB0112962D913C91139714964D90F7
:1014BA005C9015978D919C9111979A8389831696C2
:1014CA006D907C90179737FD03C08D7F9A8389832F
:1014DA00008111812281338144815581668177811E
:1014EA00FE0131965F0188E0C82ED12C7201C40139
:1014FA000E944907298124FF06C00197F301E80FDA
:10150A00F91F20E32083298123FF06C00197F301F5
:10151A00E80FF91F20E22083E980FA80D4011896A7
:10152A002D913C91199721503109281B390B860DB1
:10153A00971DAC0160E88201C1010E9481089C01EB
:10154A00F1018081918190FF08C0D40112968D919A
:10155A009C911397821793070CF4C9012296E2E132
:04156A000C94780E57
:10156E002F923F924F926F927F928F92AF92BF9235
:10157E00CF92DF92EF92FF920F931F93CF93DF9351
:10158E00CDB7DEB727970FB6F894DEBF0FBECDBF2F
:10159E006C017B013901842E980182EF282E80E0A8
:1015AE00382E80E0482E87E0F101AE014F5F5F4F8D
:1015BE00DA01742D0E941C0FF70102811381A480A1
:1015CE00B580E080F18061147104810419F43A0150
:1015DE00F0E88F2E2115310529F4882DB3010E94D4
:1015EE00C40E9C0117FD04C00217130708F49801DE
:1015FE008501682DA301C6010E94810827960FB6AA
:10160E00F894DEBF0FBECDBFDF91CF911F910F912A
:10161E00FF90EF90DF90CF90BF90AF908F907F9024
:0A162E006F904F903F902F900895A9
:10163800A2E0B0E0E2E2FBE00C94410E3C014B0179
:10164800FA01DB0112962D913C91139714964D9057
:101658005C9015978D919C9111979A838983169622
:101668002D903C90179737FD03C08D7F9A8389830F
:10167800008111812281338144815581668177817E
:10168800FE0131965F018AE0C82ED12C7201C40197
:101698000E944907E980FA80D40118962D913C915F
:1016A800199721503109281B390B820D931DAC0164
:1016B80060E88201C3010E9481089C01F3018081D6
:1016C800918190FF08C0D40112968D919C91139737
:1016D800821793070CF4C9012296E2E10C94780E64
:1016E8006F927F928F92EF92FF920F931F93CF93F7
:1016F800DF93CDB7DEB761970FB6F894DEBF0FBEA4
:10170800CDBFFE01319651E1DF011D925A95E9F7EF
:10171800A2E0B1E0BA83A9839C838B8377FF09C0D9
:101728008FE490E090930101809300018FEF9FEF89
:1017380019C03901842E7C01615071097F836E8341
:101748009801682DA301CF010E94AC0E48855985E8
:101758002E813F814217530708F49A01F701E20FDF
:10176800F31F108261960FB6F894DEBF0FBECDBF8F
:10177800DF91CF911F910F91FF90EF908F907F9005
:041788006F900895C1
:10178C0088249924F401E401B0E49F93AA279A15C4
:10179C008B049C04ED05FE05CF05D007A10798F43A
:1017AC00AD2FDC2FCF2FFE2FE92D982C892E982FC3
:1017BC00872F762F652F542F432F322F2227B85087
:1017CC0031F7BF9127C01B2EBF91BB27220F331FB0
:1017DC00441F551F661F771F881F991F881C991C53
:1017EC00EE1FFF1FCC1FDD1FAA1FBB1F8A149B04FB
:1017FC00EC05FD05CE05DF05A007B10748F08A18FA
:10180C009B08EC09FD09CE09DF09A00BB10B216087
:10181C001A94E1F62EF49401AF01BE01CD01000C37
:02182C0008951D
:10182E00CF92DF92EF92DC0190E0292F30E0220F71
:10183E00331F6901032E000CEE086E2DA6014452D3
:10184E005F4F6F4F6A01E62EFA018491E7FC8081AB
:10185E0081110DC02F5F3F4F032E000C440B2452FD
:10186E003F4F4F4FF901849147FD808124C0CD90A9
:10187E00DD90EC901297F6014491E7FC40818413C1
:10188E0015C02F5F3F4F032E000C440B24523F4FC9
:10189E004F4FF901949147FD90815FEFC51AD50A1C
:1018AE00E50ACD92DD92EC92129701C09F5F9B30BC
:0E18BE0008F4BBCF892FEF90DF90CF900895F4
:1018CC000F931F93CF93DF93DB012D913C911197D5
:1018DC0030FF25C017964D915C91189715962D9158
:1018EC003C9116974217530778F41296ED91FC91A0
:1018FC001397808312962D913C9113972F5F3F4F36
:10190C0013963C932E93129717962D913C91189702
:10191C002F5F3F4F18963C932E93179715C01D962B
:10192C00ED91FC911E97309719F48FEF9FEF0CC03F
:10193C008B01EC010995892BC1F7F8018781908502
:10194C00019690878783CE01DF91CF911F910F91E4
:02195C000895EC
:10195E00CF939B01482FF901849147FD80818032FE
:10196E00C9F1682F082E000C770B6950710965308C
:10197E00710580F18B3249F5A0E0B0E02F5F3F4F4B
:10198E004F4F02C0A0E0B0E080E090E0CAE0F90165
:10199E00649147FD6081062E000C770B6053710930
:1019AE006A30710560F4C89FF001C99FF00D1124D3
:1019BE002F5F3F4F4F4FCF01861B970BE8CFAB2BBF
:1019CE0069F491958195910909C08D32D9F6A1E0FE
:1019DE00B0E0D4CF2F5F3F4F4F4FBDCFCF91089583
:1019EE00E89409C097FB3EF49095809570956195AB
:1019FE007F4F8F4F9F4F9923A9F0F92F96E9BB2761
:101A0E009395F695879577956795B795F111F8CFDC
:101A1E00FAF4BB0F11F460FF1BC06F5F7F4F8F4F47
:101A2E009F4F16C0882311F096E911C0772321F03D
:101A3E009EE8872F762F05C0662371F096E8862FD5
:101A4E0070E060E02AF09A95660F771F881FDAF72C
:0A1A5E00880F9695879597F9089573
:101A68006F927F928F92CF92DF92EF920F931F9394
:101A7800CF93DF938C016A01E62EE9013A01862EA5
:101A8800620E731E811C37FD8A94C614D704E804BD
:101A980079F0F6018491E7FC8081B801082E000CEA
:101AA800990B0E94660C8FEFC81AD80AE80AEDCF86
:101AB800CE01DF91CF911F910F91EF90DF90CF90E2
:081AC8008F907F906F9008954C
:101AD0000E94E90D88F09F5798F0B92F9927B751C8
:101AE000B0F0E1F0660F771F881F991F1AF0BA95C2
:101AF000C9F714C0B13091F00E947F0FB1E0089592
:101B00000C947F0F672F782F8827B85F39F0B93F83
:101B1000CCF3869577956795B395D9F73EF4909574
:0E1B20008095709561957F4F8F4F9F4F089570
:101B2E00CF93C82F87EC90E00197F1F700C000002B
:101B3E005D988BB1807F8BB98BB19C2F92959F70E6
:101B4E00892B8BB90E94410F87EC90E00197F1F73A
:101B5E0000C000008BB1807F8BB98BB1CF70C82BCA
:0A1B6E00CBB90E94410FCF910895FA
:101B7800CF93C82F87EC90E00197F1F700C00000E1
:101B88005D9A8BB1807F8BB98BB19C2F92959F709A
:101B9800892B8BB90E94410F87EC90E00197F1F7F0
:101BA80000C000008BB1807F8BB98BB1CF70C82B80
:0A1BB800CBB90E94410FCF910895B0
:101BC20057FD9058440F551F59F05F3F71F04795EC
:101BD200880F97FB991F61F09F3F79F087950895D1
:101BE200121613061406551FF2CF4695F1DF08C0F0
:101BF200161617061806991FF1CF8695710561050D
:041C020008940895A5
:101C0600FA0160387105CCF0623871051CF0633852
:101C1600710599F4A081B1819D012C5F3F4F3183FD
:101C260020834D915D916D917C91FC0140835183A0
:101C36006283738381E090E0089580E090E00895E8
:101C460097FB10F8169400080F93083098F0085088
:101C5600232F342F452F562F672F782F892F902D1E
:101C6600F4CF0594979587957795679557954795FA
:0C1C7600379527950A95AAF70F9108955D
:101C82002F923F924F925F926F927F928F929F928A
:101C9200AF92BF92CF92DF92EF92FF920F931F9378
:101CA200CF93DF93CDB7DEB7CA1BDB0B0FB6F89429
:081CB200DEBF0FBECDBF099497
:101CBA00CF92DF92EF926B01E82EFB018491E7FC51
:101CCA008081882361F00E94BC0D8FEFC81AD80A60
:101CDA00E80AF6018491E7FC80818111F4CFEF9044
:061CEA00DF90CF90089589
:101CF0002A88398848885F846E847D848C849B849C
:101D0000AA84B984C884DF80EE80FD800C811B81A9
:101D1000AA81B981CE0FD11D0FB6F894DEBF0FBED8
:061D2000CDBFED010895A6
:101D26008AB18F608AB98BB1807F8BB98AB18066A0
:101D36008AB98BB18F798BB983E30E94970D82E3C1
:101D46000E94970D88E20E94970D8EE00E94970DE3
:021D56000895EE
:101D5800A2E0B0E0E2EBFEE00C944F0E8C013A8377
:101D680029839E012F5F3F4F0E948000F801208148
:101D780024FF02C08FEF9FEF2296E4E00C94860EBA
:101D8800CF92DF92EF926B01E82EA82FCB01FC01D6
:101D98002491A7FD2081222319F00196A11DF7CFD8
:0C1DA8008C199D09EF90DF90CF900895FA
:101DB400A0E0B0E0E0EEFEE00C94510E9E01265F40
:101DC4003F4F4F81588569858D819E810E94290FDF
:061DD400E2E00C94880E11
:101DDA00092E0394000C11F4882352F0BB0F40F42F
:101DEA00BF2B11F460FF04C06F5F7F4F8F4F9F4F6F
:021DFA0008954A
:101DFC00609570958095909530954095509521956E
:101E0C003F4F4F4F5F4F6F4F7F4F8F4F9F4F0895F7
:101E1C00689401C0E8948F929F92CF93DF930E94B5
:0C1E2C00C60BDF91CF919F908F9008951E
:101E3800992777FD05C005900D920197E1F7089560
:0A1E480001900D920197E1F7089553
:101E52000F931F9389019A01462F6FEF7FE70E942C
:081E6200740B1F910F9108950C
:101E6A000024A7FD00942A17300540055005600597
:081E7A00700580059005089534
:101E82005E9A8AE18A95F1F700C05E988AE18A95A6
:061E9200F1F700C0089505
:101E9800EC010E94A50F0E94A40FCE010E94A60F7C
:061EA800CE010E94A20F12
:101EAE00FC01480F591FE417F50711F06193FBCFA2
:021EBE00089585
:101EC0009C01215631092A31310510F48F7599276B
:021ED000089573
:101ED2009C01215431092A31310508F480620895A8
:0E1EE20000240A94161617061806090608951D
:0E1EF00000240A94121613061406050608951F
:0E1EFE00E894BB2766277727CB0197F9089554
:0C1F0C00E1E8F0E08081826880830895A5
:0C1F180097F99F6780E870E060E0089592
:081F24000E9408090C94ED0E67
:081F2C000E94E3090C94ED0E84
:061F34009FEF80EC089510
:061F3A0080E090E0089534
:041F40000C940000FD
:041F44000E945F0098
:021F48000895FA
:021F4A000895F8
:021F4C000895F6
:00000001FF
