:100000000C9437000C94CE000C94CE000C94CE00CF
:100010000C94CE000C94CE000C94CE000C94CE0028
:100020000C94CE000C94CE000C94CE000C94CE0018
:100030000C94CE000C94A2000C94CE000C94CE0034
:100040000C94CE000C94CE000C94CE000C94CE00F8
:100050000C94CE000C94CE000C94CE000C94CE00E8
:100060000C94CE000C94CE000100010280001124FB
:100070001FBECFEFD8E0DEBFCDBFE8E6F0E040E046
:1000800017C0B591A59135912591059107FD0CC03B
:1000900095918591EF01F92FE82F05900D92A21708
:1000A000B307D9F7FE0104C01D92A217B307E1F709
:1000B000ED36F40731F70E9461000C94C300F89408
:0200C000FFCF70
:1000C200209A28985A9A10928000E1E8F0E0808104
:1000D200856080838BEE94EC9093850080938400FE
:1000E200EFE6F0E0808181608083789481E090E0A7
:1000F2004A99FECFEBE4FDE13197F1F700C0000031
:100102004A9BFECFEBE4FDE13197F1F700C000001E
:1001120090930101809300014A99FECFEBE4FDE147
:100122003197F1F700C000004A9BFECFEBE4FDE1FE
:100132003197F1F700C00000109201011092000106
:02014200D7CF15
:100144001F921FB61F9211248F939F938BEE94ECF2
:100154009093850080938400809100019091010127
:10016400009729F495B181E0892785B904C08130CD
:10017400910509F428989F918F911F901FBE1F909D
:020184001895CC
:10018600EC010E94D3000E94D200CE010E94D4004E
:06019600CE010E94D00022
:04019C000C940000BF
:0401A0000E945F005A
:0201A4000895BC
:0201A6000895BA
:0201A8000895B8
:00000001FF
