:100000000C9437000C94E6010C94E6010C94E60184
:100010000C94E6010C94E6010C94E6010C94E601C4
:100020000C94E6010C94E6010C94E6010C94E601B4
:100030000C94E6010C9461000C94E6010C94E6012A
:100040000C94E6010C94E6010C94E6010C94E60194
:100050000C94E6010C94E6010C94E6010C94E60184
:100060000C94E6010C94E6010100010A80001124C1
:100070001FBECFEFD8E0DEBFCDBFE8E6F0E040E046
:1000800017C0B591A59135912591059107FD0CC03B
:1000900095918591EF01F92FE82F05900D92A21708
:1000A000B307D9F7FE0104C01D92A217B307E1F709
:1000B000ED36F40731F70E9454010C94DB01F894FB
:0200C000FFCF70
:1000C2001F921FB61F9211248F939F938BE791EE7D
:1000D200909385008093840080910801909109019A
:1000E200009709F58091020190910301892B09F093
:1000F2007CC042984198409A81E090E09093090137
:10010200809308018091060190910701009709F4FC
:100112007BC0853091050CF068C001969093070171
:100122008093060162C08130910509F58091020138
:1001320090910301892B09F058C040984298419A46
:1001420082E090E09093090180930801809106017A
:1001520090910701009709F457C0853091050CF082
:1001620044C0019690930701809306013EC08230FD
:100172009105F1F48091020190910301892BA9F577
:1001820041984098429A83E090E0909309018093CD
:10019200080180910601909107010097A9F185302D
:1001A20091051CF5019690930701809306011DC0ED
:1001B2000397D9F48091020190910301892BA9F44C
:1001C20042984098419A1092090110920801809138
:1001D2000601909107010097B9F0853091052CF442
:1001E20001969093070180930601809106019091F8
:1001F2000701049749F44098419842988FEF9FEF86
:100202009093090180930801809104019091050166
:100212008130910571F48091020190910301813046
:100222009105D9F582E090E0909305018093040155
:1002320034C08230910571F48091020190910301E2
:100242008130910551F583E090E090930501809310
:10025200040123C08330910571F4809102019091D1
:10026200030181309105C9F484E090E09093050187
:100272008093040103C08430910579F44098419839
:1002820042988FEF9FEF909309018093080181E0DC
:1002920090E090930101809300019F918F911F90B4
:0602A2001FBE1F9018951D
:1002A80087B1876087B988B1887F88B95A9A1092D0
:1002B8008000E1E8F0E08081856080838BE791EE43
:1002C8009093850080938400EFE6F0E08081816060
:1002D8008083789481E090E04A99FECFEBE4FDE1D9
:1002E8003197F1F700C00000909307018093060151
:1002F8004A9BFECFEBE4FDE13197F1F700C0000027
:1003080090930301809302014A99FECFEBE4FDE14B
:100318003197F1F700C00000909305018093040124
:100328004A9BFECF10920301109202011092050120
:1003380010920401EBE4FDE13197F1F700C00000F1
:1003480020910001309101012130310501F5209102
:100358000801309109012F3F3F4F21F54A99FECFFF
:10036800EBE4FDE13197F1F700C000004A9BFECFB6
:10037800EBE4FDE13197F1F700C0000010920901AC
:100388001092080110920101109200010BC02091F7
:100398000801309109012F3F3F4F21F410920901C4
:0E03A80010920801109207011092060195CFE5
:1003B600EC010E94EB010E94EA01CE010E94EC01D1
:0603C600CE010E94E801D7
:0403CC000C9400008D
:0403D0000E945F0028
:0203D40008958A
:0203D600089588
:0203D800089586
:00000001FF
