:100000000C9434000C9499000C9499000C94990071
:100010000C9499000C9499000C9499000C949900FC
:100020000C9499000C9499000C9499000C949900EC
:100030000C9499000C9499000C9499000C949900DC
:100040000C9499000C9499000C9499000C949900CC
:100050000C9499000C9499000C9499000C949900BC
:100060000C9499000C94990011241FBECFEFD8E096
:10007000DEBFCDBF0E945F000C948B00F894FFCFD1
:100080008A31910560F08034910560F080389105E7
:1000900060F0803C910560F08FEF90E00BC089E14B
:1000A00090E008C08FE390E005C08FE790E002C0C9
:0E00B0008FEB90E09093890080938800089574
:1000BE000E9475000E9496000E948000CAE7D0E060
:1000CE0008E710E0888180648883888186FDFDCFF3
:0C00DE00F801808191810E944000F4CF65
:1000EA00ECE7F0E0808181648083EAE7F0E08081D8
:0600FA0087688083089571
:10010000E0E8F0E08081816C8083E1E8F0E08081CC
:0601100081608083089568
:10011600EC010E949E000E949D00CE010E949F005D
:06012600CE010E949B00C7
:06012C00219A29980895B4
:040132000C94000029
:040136000E943E00E5
:02013A00089526
:02013C00089524
:02013E00089522
:00000001FF
