:100000000C9437000C94C8000C94C8000C94C800E1
:100010000C94C8000C94C8000C94C8000C94C80040
:100020000C94C8000C94C8000C94C8000C94C80030
:100030000C94C8000C94A4000C94C8000C94C80044
:100040000C94C8000C94C8000C94C8000C94C80010
:100050000C94C8000C94C8000C94C8000C94C80000
:100060000C94C8000C94C800010001028000112407
:100070001FBECFEFD8E0DEBFCDBFE8E6F0E040E046
:1000800017C0B591A59135912591059107FD0CC03B
:1000900095918591EF01F92FE82F05900D92A21708
:1000A000B307D9F7FE0104C01D92A217B307E1F709
:1000B000ED36F40731F70E9461000C94BD00F8940E
:0200C000FFCF70
:1000C200209A28985A9A10928000E1E8F0E0808104
:1000D200856080838BE791EE909385008093840006
:1000E200EFE6F0E0808181608083789481E090E0A7
:1000F2004A99FECFEBE4FDE13197F1F700C0000031
:100102004A9BFECFEBE4FDE13197F1F700C000001E
:10011200289890930101809300014A99FECFEBE465
:10012200FDE13197F1F700C000004A9BFECFEBE4FE
:10013200FDE13197F1F700C00000289A1092010109
:0601420010920001D5CF70
:100148008F938FB78F939F938BE791EE9093850052
:10015800809384008091000190910101009721F41F
:1001680095B181E0892785B99F918F918FBF8F9134
:020178001895D8
:10017A00EC010E94CD000E94CC00CE010E94CE006C
:06018A00CE010E94CA0034
:040190000C940000CB
:040194000E945F0066
:020198000895C8
:02019A000895C6
:02019C000895C4
:00000001FF
