:100000000C9437000C9457010C9457010C94570131
:100010000C9457010C9457010C9457010C94570100
:100020000C9457010C9457010C9457010C945701F0
:100030000C9457010C9436010C9457010C94570101
:100040000C9457010C9457010C9457010C945701D0
:100050000C9457010C9457010C9457010C945701C0
:100060000C9457010C9457010100010280001124E7
:100070001FBECFEFD8E0DEBFCDBFE8E6F0E040E046
:1000800017C0B591A59135912591059107FD0CC03B
:1000900095918591EF01F92FE82F05900D92A21708
:1000A000B307D9F7FE0104C01D92A217B307E1F709
:1000B000ED36F40731F70E946F000C944C01F89470
:0200C000FFCF70
:1000C2002020202044697374616E636500322E33F0
:0C00D20000780030302E30302E3030002E
:1000DE008BB1806C8BB90E941D0181E00E94B8002B
:1000EE0080E80E94B80062EC70E080E00E9402019D
:1000FE0080EC0E94B8006FEC70E080E00E9402017C
:10010E0063ED70E080E00E94020110928000E1E851
:10011E00F0E080818560808387EF9FEF909385006C
:10012E0080938400EFE6F0E0808181608083789494
:10013E00C1E0D0E04E99FECF2FEF80E792E0215044
:10014E0080409040E1F700C000004E9BFECFD09360
:10015E000101C093000165ED70E080E00E94020194
:02016E00E9CFD7
:10017000CF93C82F87EC90E00197F1F700C0000003
:100180005D988BB1807F8BB98BB19C2F92959F70BE
:10019000892B8BB90E94410187EC90E00197F1F720
:1001A00000C000008BB1807F8BB98BB1CF70C82BA2
:0A01B000CBB90E944101CF910895E0
:1001BA00CF93C82F87EC90E00197F1F700C00000B9
:1001CA005D9A8BB1807F8BB98BB19C2F92959F7072
:1001DA00892B8BB90E94410187EC90E00197F1F7D6
:1001EA0000C000008BB1807F8BB98BB1CF70C82B58
:0A01FA00CBB90E944101CF91089596
:10020400CF92DF92EF926B01E82EFB018491E7FC21
:100214008081882361F00E94DD008FEFC81AD80A1C
:10022400E80AF6018491E7FC80818111F4CFEF9014
:06023400DF90CF90089559
:10023A008AB18F608AB98BB1807F8BB98AB18066A7
:10024A008AB98BB18F798BB983E30E94B80082E3B4
:10025A000E94B80088E20E94B8008EE00E94B800AE
:02026A000895F5
:10026C008F939F938BE791EE9093850080938400FE
:06027C009F918F9118957F
:100282005E9A8AE18A95F1F700C05E988AE18A95C2
:06029200F1F700C0089521
:10029800EC010E945C010E945B01CE010E945D019D
:0602A800CE010E94590185
:0402AE000C940000AC
:0402B2000E945F0047
:0202B6000895A9
:0202B8000895A7
:0202BA000895A5
:00000001FF
