:100000000C9437000C9487000C94B1000C94B10050
:100010000C94B1000C94B1000C94B1000C94B1009C
:100020000C94B1000C94B1000C94B1000C94B1008C
:100030000C94B1000C94B1000C94B1000C94B1007C
:100040000C94B1000C94B1000C94B1000C94B1006C
:100050000C94B1000C94B1000C94B1000C94B1005C
:100060000C94B1000C94B100010001028000112435
:100070001FBECFEFD8E0DEBFCDBFE8E6F0E040E046
:1000800017C0B591A59135912591059107FD0CC03B
:1000900095918591EF01F92FE82F05900D92A21708
:1000A000B307D9F7FE0104C01D92A217B307E1F709
:1000B000ED36F40731F70E9461000C94A600F89425
:0200C000FFCF70
:1000C200219A5A9AE9E6F0E0808182608083E89A78
:1000D20078948091000190910101892BA9F0299ACD
:1000E2002FEF83ED90E3215080409040E1F700C074
:1000F200000029982FEF83ED90E32150804090403B
:0C010200E1F700C00000E5CF2998E3CF32
:10010E002F932FB72F938F939F932FE788E391E031
:10011E00215080409040E1F700C000002998809166
:10012E0000019091010121E08227909301018093BB
:0E013E0000019F918F912F912FBF2F91189547
:10014C00EC010E94B6000E94B500CE010E94B700DF
:06015C00CE010E94B30079
:040162000C940000F9
:040166000E945F0094
:02016A000895F6
:02016C000895F4
:02016E000895F2
:00000001FF
