:100000000C9437000C94181A0C94181A0C94181AA3
:100010000C94181A0C94181A0C94181A0C94181A98
:100020000C94181A0C94181A0C94181A0C94181A88
:100030000C94181A0C94CC170C94181A0C94181AC7
:100040000C94181A0C94181A0C94181A0C94181A68
:100050000C94181A0C94181A0C94181A0C94181A58
:100060000C94181A0C94181A0100010A800011242B
:100070001FBECFEFD8E0DEBFCDBFE8E6F0E040E046
:1000800017C0B591A59135912591059107FD0CC03B
:1000900095918591EF01F92FE82F05900D92A21708
:1000A000B307D9F7FE0104C01D92A217B307E1F709
:1000B000ED36F40731F70E94AA000C94F019F89479
:0200C000FFCF70
:1000C2002020202054696D65720050726573732080
:1000D200313A206F70656E002020202030302E30A3
:1000E200302E303000507265737320313A207374B1
:1000F20061727400202020200025640030003A0044
:1001020052313A200052323A200052333A20005201
:10011200343A200020202020507265737320313A37
:0E01220020726573746172740052353A2000C9
:1001300068076C094C836A9074A07AC00080688854
:0601400000846C820081C6
:07014600286E756C6C2900A6
:06014D00286E696C290018
:100154002F923F924F925F926F927F928F929F92D3
:10016400AF92BF92CF92DF92EF92FF920F931F93C1
:10017400CF93DF93CDB7DEB7C659D1090FB6F89444
:10018400DEBF0FBECDBF85B18C6085B90E9420193A
:1001940084E1FE013196DF01282F1D922A95E9F7AB
:1001A4007496DF01282F1D922A95E9F77496DF01D2
:1001B400282F1D922A95E9F77496DF01282F1D92A6
:1001C4002A95E9F77496DF01282F1D922A95E9F7FD
:1001D4007496DF011D928A95E9F710928000E1E898
:1001E400F0E080818560808387EF9FEF90938500A6
:1001F40080938400EFE6F0E08081816080837894CE
:1002040085B18C6085B98091080190910901892B91
:1002140011F00C94A50C0F2EFBEF6F2EF0E07F2E47
:10022400F0E08F2EF02DCE01CD96EB969FAF8EAFE2
:10023400EB97DE01AB59BF4FED96BFAFAEAFED9775
:100244004496EF969FAF8EAFEF97A0E8CB57DF4F62
:1002540088839983AA83C558D040ED96AEADBFADCF
:10026400ED97CD01A0E8C857DF4F88839983AA830F
:10027400C858D040EB96AEADBFADEB97CD01A0E82A
:10028400C557DF4F88839983AA83CB58D04081E038
:100294000E94461880E80E94461862EC70E080E0F4
:1002A4000E94EA1880EC0E9446186CEC70E080E032
:1002B4000E94EA181B99FECFBFEF20E782E0B150FD
:1002C40020408040E1F700C000001B9BFECF81E08E
:1002D40090E090930901809308010E94461880E8F9
:1002E4000E9446186AED70E080E00E94EA1880ECF3
:1002F4000E94461867EE70E080E00E94EA181B999D
:10030400FECF9FEFA0E7B2E09150A040B040E1F7EC
:1003140000C000001B9BFECF82E090E09093090197
:10032400809308011A9B9FC0CE0101965C018E0147
:10033400075D1F4F7E0195E1E90EF11C1701A0E84E
:100344004A2EC801A0E8C158DF4F88839983AA8345
:10035400CF57D040C501A0E8CE57DF4F888399839B
:10036400AA83C258D04081E00E94461880E80E94C7
:10037400461880910601909107016AE070E00E949E
:100384006719D62EC72E66EF70E080E00E94EA1847
:10039400CF92DF928F927F926F92BF92AF920E9420
:1003A4008F19809103018F93809102018F938F9213
:1003B4007F926F921F930F930E948F198091050172
:1003C4008F93809104018F938F927F926F92FF920B
:1003D400EF920E948F190FB6F894DEBF0FBECDBF07
:1003E40080910401909105010A972CF46EEF70E05E
:1003F40080E00E94EA18842DB1010E94EA1860E0AE
:1004040071E080E00E94EA1880910201909103015A
:100414000A972CF46EEF70E080E00E94EA18C1584D
:10042400DF4F688179818A81CF57D0400E94EA18D2
:1004340060E071E080E00E94EA18809106019091EA
:1004440007010A972CF46EEF70E080E00E94EA182E
:10045400CE57DF4F688179818A81C258D0400E948B
:10046400EA181A9980CF209002013090030140903D
:1004740004015090050180910601909107016AE002
:1004840070E00E946719CE57DF4F6883C258D0408E
:10049400CD57DF4F7883C358D0407F936F938F92AB
:1004A4007F926F92EB96BFADEB97BF93EA962FAD19
:1004B400EA972F930E948F193F922F928F927F92E7
:1004C4006F92ED968FADED978F93EC969FADEC9771
:1004D4009F930E948F195F924F928F927F926F9297
:1004E400EF96AFADEF97AF93EE96BFADEE97BF9398
:1004F4000E948F192FEF80E792E0215080409040B6
:10050400E1F700C000000FB6F894DEBF0FBECDBF08
:100514001A99FFC0CE0101965C017E0199E2E90EB1
:10052400F11C6E01A5E1CA0ED11CC601A0E8C25798
:10053400DF4F88839983AA83CE58D040C701A0E8AF
:10054400CF56DF4F88839983AA83C159D040C50110
:10055400A0E8CC56DF4F88839983AA83C459D0403E
:1005640081E00E94461880E80E94461880910601A6
:10057400909107016AE070E00E946719962EC158B5
:10058400DF4F7883CF57D040062F172F66EF70E0E8
:1005940080E00E94EA18C158DF4F9881CF57D040BD
:1005A4009F939F928F927F926F92BF92AF920E947D
:1005B4008F19809103018F93809102018F938F9201
:1005C4007F926F92FF92EF920E948F1980910501A2
:1005D4008F93809104018F938F927F926F92DF9219
:1005E400CF920E948F190FB6F894DEBF0FBECDBF15
:1005F40080910401909105010A972CF46EEF70E04C
:1006040080E00E94EA18C257DF4F688179818A81AD
:10061400CE58D0400E94EA1860E071E080E00E9469
:10062400EA1880910201909103010A972CF46EEF6D
:1006340070E080E00E94EA18CF56DF4F688179812C
:100644008A81C159D0400E94EA1860E071E080E0DC
:100654000E94EA180A3011052CF46EEF70E080E075
:100664000E94EA18CC56DF4F688179818A81C45987
:10067400D0400E94EA1880EC0E94461862E071E0C3
:1006840080E00E94EA18BAE04B1651042CF46EEF95
:1006940070E080E00E94EA18CB57DF4F68817981CF
:1006A4008A81C558D0400E94EA1860E071E080E079
:1006B4000E94EA182AE0221631042CF46EEF70E04E
:1006C40080E00E94EA18C857DF4F688179818A81E7
:1006D400C858D0400E94EA1860E071E080E00E94AF
:1006E400EA18CE57DF4F88819981C258D0400A97C3
:1006F4002CF46EEF70E080E00E94EA18C557DF4FDB
:10070400688179818A81CB58D0400E94EA181A9B6B
:1007140027CF1A9BFFC0DE0111965D017E01B9E26D
:10072400EB0EF11C6E0125E1C20ED11CC601A0E83E
:10073400C257DF4F88839983AA83CE58D040C7011C
:10074400A0E8CF56DF4F88839983AA83C159D0404C
:10075400C501A0E8CC56DF4F88839983AA83C45986
:10076400D04081E00E94461880E80E94461880919B
:100774000601909107016AE070E00E946719962EC5
:10078400C158DF4F7883CF57D040062F172F66EF1D
:1007940070E080E00E94EA18C158DF4F9881CF577B
:1007A400D0409F939F928F927F926F92BF92AF920D
:1007B4000E948F19809103018F93809102018F937E
:1007C4008F927F926F92FF92EF920E948F19809185
:1007D40005018F93809104018F938F927F926F9282
:1007E400DF92CF920E948F190FB6F894DEBF0FBE2E
:1007F400CDBF80910401909105010A972CF46EEF0E
:1008040070E080E00E94EA18C257DF4F6881798166
:100814008A81CE58D0400E94EA1860E071E080E0FE
:100824000E94EA1880910201909103010A972CF426
:100834006EEF70E080E00E94EA18CF56DF4F6881C7
:1008440079818A81C159D0400E94EA1860E071E040
:1008540080E00E94EA180A3011052CF46EEF70E073
:1008640080E00E94EA18CC56DF4F688179818A8142
:10087400C459D0400E94EA1880EC0E94461862E0F5
:1008840071E080E00E94EA18BAE04B1651042CF49F
:100894006EEF70E080E00E94EA18CB57DF4F68816A
:1008A40079818A81C558D0400E94EA1860E071E0DD
:1008B40080E00E94EA182AE0221631042CF46EEF3C
:1008C40070E080E00E94EA18C857DF4F68817981A0
:1008D4008A81C858D0400E94EA1860E071E080E044
:1008E4000E94EA18CE57DF4F88819981C258D040C0
:1008F4000A972CF46EEF70E080E00E94EA18C55766
:10090400DF4F688179818A81CB58D0400E94EA18F0
:100914001A9927CF209002013090030140900401DE
:100924005090050180910601909107016AE070E002
:100934000E946719CE57DF4F6883C258D040CD5705
:10094400DF4F7883C358D0407F936F938F927F9209
:100954006F92EB969FADEB979F93EA96AFADEA97B4
:10096400AF930E948F193F922F928F927F926F9232
:10097400ED96BFADED97BF93EC962FADEC972F930B
:100984000E948F195F924F928F927F926F92EF968F
:100994008FADEF978F93EE969FADEE979F930E9446
:1009A4008F19AFEFB0E722E0A150B0402040E1F74B
:1009B40000C000000FB6F894DEBF0FBECDBF1A9979
:1009C400FFC0DE0111965D017E01B9E2EB0EF11C60
:1009D4006E0125E1C20ED11CC601A0E8C257DF4F4B
:1009E40088839983AA83CE58D040C701A0E8CF5604
:1009F400DF4F88839983AA83C159D040C501A0E8F9
:100A0400CC56DF4F88839983AA83C459D04081E0B0
:100A14000E94461880E80E94461880910601909131
:100A240007016AE070E00E946719962EC158DF4FF3
:100A34007883CF57D040062F172F66EF70E080E001
:100A44000E94EA18C158DF4F9881CF57D0409F9336
:100A54009F928F927F926F92BF92AF920E948F1952
:100A6400809103018F93809102018F938F927F92E3
:100A74006F92FF92EF920E948F19809105018F93DC
:100A8400809104018F938F927F926F92DF92CF9225
:100A94000E948F190FB6F894DEBF0FBECDBF8091B0
:100AA4000401909105010A972CF46EEF70E080E048
:100AB4000E94EA18C257DF4F688179818A81CE5833
:100AC400D0400E94EA1860E071E080E00E94EA18D9
:100AD40080910201909103010A972CF46EEF70E06B
:100AE40080E00E94EA18CF56DF4F688179818A81BD
:100AF400C159D0400E94EA1860E071E080E00E9491
:100B0400EA180A3011052CF46EEF70E080E00E94C0
:100B1400EA18CC56DF4F688179818A81C459D04064
:100B24000E94EA1880EC0E94461867E071E080E0B9
:100B34000E94EA18BAE04B1651042CF46EEF70E0F0
:100B440080E00E94EA18CB57DF4F688179818A815F
:100B5400C558D0400E94EA1860E071E080E00E942D
:100B6400EA182AE0221631042CF46EEF70E080E0DB
:100B74000E94EA18C857DF4F688179818A81C85872
:100B8400D0400E94EA1860E071E080E00E94EA1818
:100B9400CE57DF4F88819981C258D0400A972CF4F0
:100BA4006EEF70E080E00E94EA18C557DF4F68815D
:100BB40079818A81CB58D0400E94EA181A9B27CFAA
:100BC4001A9BFFC0DE0111965D017E01B9E2EB0EB6
:100BD400F11C6E0125E1C20ED11CC601A0E8C2576A
:100BE400DF4F88839983AA83CE58D040C701A0E8F9
:100BF400CF56DF4F88839983AA83C159D040C5015A
:100C0400A0E8CC56DF4F88839983AA83C459D04087
:100C140081E00E94461880E80E94461880910601EF
:100C2400909107016AE070E00E946719962EC158FE
:100C3400DF4F7883CF57D040062F172F66EF70E031
:100C440080E00E94EA18C158DF4F9881CF57D04006
:100C54009F939F928F927F926F92BF92AF920E94C6
:100C64008F19809103018F93809102018F938F924A
:100C74007F926F92FF92EF920E948F1980910501EB
:100C84008F93809104018F938F927F926F92DF9262
:100C9400CF920E948F190FB6F894DEBF0FBECDBF5E
:100CA40080910401909105010A972CF46EEF70E095
:100CB40080E00E94EA18C257DF4F688179818A81F7
:100CC400CE58D0400E94EA1860E071E080E00E94B3
:100CD400EA1880910201909103010A972CF46EEFB7
:100CE40070E080E00E94EA18CF56DF4F6881798176
:100CF4008A81C159D0400E94EA1860E071E080E026
:100D04000E94EA180A3011052CF46EEF70E080E0BE
:100D14000E94EA18CC56DF4F688179818A81C459D0
:100D2400D0400E94EA1880EC0E94461867E071E007
:100D340080E00E94EA18BAE04B1651042CF46EEFDE
:100D440070E080E00E94EA18CB57DF4F6881798118
:100D54008A81C558D0400E94EA1860E071E080E0C2
:100D64000E94EA182AE0221631042CF46EEF70E097
:100D740080E00E94EA18C857DF4F688179818A8130
:100D8400C858D0400E94EA1860E071E080E00E94F8
:100D9400EA18CE57DF4F88819981C258D0400A970C
:100DA4002CF46EEF70E080E00E94EA18C557DF4F24
:100DB400688179818A81CB58D0400E94EA181A99B7
:100DC40027CF2090020130900301409004015090FD
:100DD400050180910601909107016AE070E00E948C
:100DE4006719CE57DF4F6883C258D040CD57DF4FC5
:100DF4007883C358D0407F936F938F927F926F9282
:100E0400EB969FADEB979F93EA96AFADEA97AF93BE
:100E14000E948F193F922F928F927F926F92ED963C
:100E2400BFADED97BF93EC962FADEC972F930E9437
:100E34008F195F924F928F927F926F92EF968FAD40
:100E4400EF978F93EE969FADEE979F930E948F1925
:100E5400AFEFB0E722E0A150B0402040E1F700C07E
:100E640000000FB6F894DEBF0FBECDBF1A99FFC0C5
:100E7400DE0111965D017E01B9E2EB0EF11C6E01FB
:100E840025E1C20ED11CC601A0E8C257DF4F8883FA
:100E94009983AA83CE58D040C701A0E8CF56DF4F2C
:100EA40088839983AA83C159D040C501A0E8CC5650
:100EB400DF4F88839983AA83C459D04081E00E947C
:100EC400461880E80E944618809106019091070117
:100ED4006AE070E00E946719962EC158DF4F78834C
:100EE400CF57D040062F172F66EF70E080E00E94A6
:100EF400EA18C158DF4F9881CF57D0409F939F92F3
:100F04008F927F926F92BF92AF920E948F198091BD
:100F140003018F93809102018F938F927F926F923E
:100F2400FF92EF920E948F19809105018F93809117
:100F340004018F938F927F926F92DF92CF920E94DF
:100F44008F190FB6F894DEBF0FBECDBF8091040198
:100F5400909105010A972CF46EEF70E080E00E94F6
:100F6400EA18C257DF4F688179818A81CE58D04010
:100F74000E94EA1860E071E080E00E94EA18809123
:100F84000201909103010A972CF46EEF70E080E067
:100F94000E94EA18CF56DF4F688179818A81C1594E
:100FA400D0400E94EA1860E071E080E00E94EA18F4
:100FB4000A3011052CF46EEF70E080E00E94EA180C
:100FC400CC56DF4F688179818A81C459D0400E9410
:100FD400EA1880EC0E9446186CE071E080E00E9400
:100FE400EA18BAE04B1651042CF46EEF70E080E07E
:100FF4000E94EA18CB57DF4F688179818A81C558EE
:10100400D0400E94EA1860E071E080E00E94EA1893
:101014002AE0221631042CF46EEF70E080E00E9486
:10102400EA18C857DF4F688179818A81C858D0404F
:101034000E94EA1860E071E080E00E94EA18CE574E
:10104400DF4F88819981C258D0400A972CF46EEF03
:1010540070E080E00E94EA18C557DF4F688179810B
:101064008A81CB58D0400E94EA181A9B27CF1A9B3A
:10107400FFC0DE0111965D017E01B9E2EB0EF11CA9
:101084006E0125E1C20ED11CC601A0E8C257DF4F94
:1010940088839983AA83CE58D040C701A0E8CF564D
:1010A400DF4F88839983AA83C159D040C501A0E842
:1010B400CC56DF4F88839983AA83C459D04081E0FA
:1010C4000E94461880E80E9446188091060190917B
:1010D40007016AE070E00E946719962EC158DF4F3D
:1010E4007883CF57D040062F172F66EF70E080E04B
:1010F4000E94EA18C158DF4F9881CF57D0409F9380
:101104009F928F927F926F92BF92AF920E948F199B
:10111400809103018F93809102018F938F927F922C
:101124006F92FF92EF920E948F19809105018F9325
:10113400809104018F938F927F926F92DF92CF926E
:101144000E948F190FB6F894DEBF0FBECDBF8091F9
:101154000401909105010A972CF46EEF70E080E091
:101164000E94EA18C257DF4F688179818A81CE587C
:10117400D0400E94EA1860E071E080E00E94EA1822
:1011840080910201909103010A972CF46EEF70E0B4
:1011940080E00E94EA18CF56DF4F688179818A8106
:1011A400C159D0400E94EA1860E071E080E00E94DA
:1011B400EA180A3011052CF46EEF70E080E00E940A
:1011C400EA18CC56DF4F688179818A81C459D040AE
:1011D4000E94EA1880EC0E9446186CE071E080E0FE
:1011E4000E94EA18BAE04B1651042CF46EEF70E03A
:1011F40080E00E94EA18CB57DF4F688179818A81A9
:10120400C558D0400E94EA1860E071E080E00E9476
:10121400EA182AE0221631042CF46EEF70E080E024
:101224000E94EA18C857DF4F688179818A81C858BB
:10123400D0400E94EA1860E071E080E00E94EA1861
:10124400CE57DF4F88819981C258D0400A972CF439
:101254006EEF70E080E00E94EA18C557DF4F6881A6
:1012640079818A81CB58D0400E94EA181A9927CFF5
:101274002090020130900301409004015090050138
:1012840080910601909107016AE070E00E9467195D
:10129400CE57DF4F6883C258D040CD57DF4F788395
:1012A400C358D0407F936F938F927F926F92EB9647
:1012B4009FADEB979F93EA96AFADEA97AF930E94E9
:1012C4008F193F922F928F927F926F92ED96BFADBE
:1012D400ED97BF93EC962FADEC972F930E948F1947
:1012E4005F924F928F927F926F92EF968FADEF97AE
:1012F4008F93EE969FADEE979F930E948F19AFEF59
:10130400B0E722E0A150B0402040E1F700C0000067
:101314000FB6F894DEBF0FBECDBF1A99FFC0DE0131
:1013240011965D017E01B9E2EB0EF11C6E0125E11F
:10133400C20ED11CC601A0E8C257DF4F888399832F
:10134400AA83CE58D040C701A0E8CF56DF4F888388
:101354009983AA83C159D040C501A0E8CC56DF4F78
:1013640088839983AA83C459D04081E00E94461897
:1013740080E80E94461880910601909107016AE076
:1013840070E00E946719962EC158DF4F7883CF57BB
:10139400D040062F172F66EF70E080E00E94EA1815
:1013A400C158DF4F9881CF57D0409F939F928F921F
:1013B4007F926F92BF92AF920E948F198091030126
:1013C4008F93809102018F938F927F926F92FF92FD
:1013D400EF920E948F19809105018F9380910401EF
:1013E4008F938F927F926F92DF92CF920E948F1988
:1013F4000FB6F894DEBF0FBECDBF8091040190916B
:1014040005010A972CF46EEF70E080E00E94EA1860
:10141400C257DF4F688179818A81CE58D0400E94BB
:10142400EA1860E071E080E00E94EA18809102010D
:10143400909103010A972CF46EEF70E080E00E9413
:10144400EA18CF56DF4F688179818A81C159D0402B
:101454000E94EA1860E071E080E00E94EA180A3015
:1014640011052CF46EEF70E080E00E94EA18CC566F
:10147400DF4F688179818A81C459D0400E94EA187B
:1014840080EC0E94461861E171E080E00E94EA1855
:10149400BAE04B1651042CF46EEF70E080E00E9429
:1014A400EA18CB57DF4F688179818A81C558D040CB
:1014B4000E94EA1860E071E080E00E94EA182AE0E5
:1014C400221631042CF46EEF70E080E00E94EA18DA
:1014D400C857DF4F688179818A81C858D0400E94FB
:1014E400EA1860E071E080E00E94EA18CE57DF4F0E
:1014F40088819981C258D0400A972CF46EEF70E02D
:1015040080E00E94EA18C557DF4F688179818A819B
:10151400CB58D0400E94EA181A9B27CF1A9BFFC0D1
:10152400DE0111965D017E01B9E2EB0EF11C6E0144
:1015340025E1C20ED11CC601A0E8C257DF4F888343
:101544009983AA83CE58D040C701A0E8CF56DF4F75
:1015540088839983AA83C159D040C501A0E8CC5699
:10156400DF4F88839983AA83C459D04081E00E94C5
:10157400461880E80E944618809106019091070160
:101584006AE070E00E946719962EC158DF4F788395
:10159400CF57D040062F172F66EF70E080E00E94EF
:1015A400EA18C158DF4F9881CF57D0409F939F923C
:1015B4008F927F926F92BF92AF920E948F19809107
:1015C40003018F93809102018F938F927F926F9288
:1015D400FF92EF920E948F19809105018F93809161
:1015E40004018F938F927F926F92DF92CF920E9429
:1015F4008F190FB6F894DEBF0FBECDBF80910401E2
:10160400909105010A972CF46EEF70E080E00E943F
:10161400EA18C257DF4F688179818A81CE58D04059
:101624000E94EA1860E071E080E00E94EA1880916C
:101634000201909103010A972CF46EEF70E080E0B0
:101644000E94EA18CF56DF4F688179818A81C15997
:10165400D0400E94EA1860E071E080E00E94EA183D
:101664000A3011052CF46EEF70E080E00E94EA1855
:10167400CC56DF4F688179818A81C459D0400E9459
:10168400EA1880EC0E94461861E171E080E00E9453
:10169400EA18BAE04B1651042CF46EEF70E080E0C7
:1016A4000E94EA18CB57DF4F688179818A81C55837
:1016B400D0400E94EA1860E071E080E00E94EA18DD
:1016C4002AE0221631042CF46EEF70E080E00E94D0
:1016D400EA18C857DF4F688179818A81C858D04099
:1016E4000E94EA1860E071E080E00E94EA18CE5798
:1016F400DF4F88819981C258D0400A972CF46EEF4D
:1017040070E080E00E94EA18C557DF4F6881798154
:101714008A81CB58D0400E94EA181A9927CFE090CA
:101724000201F0900301C0900401D0900501809162
:101734000601909107016AE070E00E946719062F84
:10174400172F7F936F938F927F926F92EB969FAD3B
:10175400EB979F93EA96AFADEA97AF930E948F19E8
:10176400FF92EF928F927F926F92ED96BFADED97BD
:10177400BF93EC962FADEC972F930E948F19DF92B5
:10178400CF928F927F926F92EF968FADEF978F9358
:10179400EE969FADEE979F930E948F19AFEFB0E73F
:1017A40022E0A150B0402040E1F700C000000FB695
:1017B400F894DEBF0FBECDBF1A9954C081E00E94D9
:1017C400461880E80E94461866E171E080E00E94B5
:1017D400EA1880EC0E9446186BE271E080E00E94F7
:1017E400EA189AE0C916D1042CF46EEF70E080E098
:1017F4000E94EA18CB57DF4F688179818A81C558E6
:10180400D0400E94EA1860E071E080E00E94EA188B
:10181400AAE0EA16F1042CF46EEF70E080E00E9476
:10182400EA18C857DF4F688179818A81C858D04047
:101834000E94EA1860E071E080E00E94EA180A3031
:1018440011052CF46EEF70E080E00E94EA18C55791
:10185400DF4F688179818A81CB58D0400E94EA1891
:101864001A9BACCF81E00E94461880E80E9446187B
:1018740066E171E080E00E94EA1880EC0E9446185C
:101884006BE271E080E00E94EA18BAE0CB16D10462
:101894002CF46EEF70E080E00E94EA18CB57DF4F23
:1018A400688179818A81C558D0400E94EA1860E035
:1018B40071E080E00E94EA182AE0E216F1042CF4B8
:1018C4006EEF70E080E00E94EA18C857DF4F68812D
:1018D40079818A81C858D0400E94EA1860E071E09A
:1018E40080E00E94EA180A3011052CF46EEF70E0D3
:1018F40080E00E94EA18C557DF4F688179818A81A8
:10190400CB58D0400E94EA181B99FECF8FEF90E786
:10191400A2E081509040A040E1F700C000001B9B72
:10192400FECF109209011092080110920701109243
:101934000601109205011092040110920301109205
:1019440002010C94490180E090E0CA56DF4F0FB6C3
:10195400F894DEBF0FBECDBFDF91CF911F910F91E1
:10196400FF90EF90DF90CF90BF90AF909F908F90BB
:0E1974007F906F905F904F903F902F9008955E
:10198200A3EAB0E0E7ECFCE00C94CE184C0159015C
:10199200C756DF4F488359836A83C959D040212CE7
:1019A200312C6E012BE8C20ED11C85E2782E260165
:1019B20030E8632ECE018D569F4FC456DF4F998378
:1019C2008883CC59D0409C0140E8CF55DF4F288313
:1019D20039834A83C15AD040C756DF4F4881C9591B
:1019E200D040C656DF4F5881CA59D040C556DF4F46
:1019F2006881CB59D040FA01849167FD80818823A8
:101A020009F4C9C3CF57DF4F19821882C158D04099
:101A12008FEF9FEFCD57DF4F99838883C358D04014
:101A2200CB57DF4F19821882C558D040A1E0B0E0F1
:101A3200AC0FBD1FC957DF4FB983A883C758D04029
:101A4200E0E8F0E0C757DF4FF983E883C958D04098
:101A5200CA01A62FE12CF12CFC012491A7FD2081C3
:101A620021111BC0E114F10401F19701C4010E948C
:101A72001218C756DF4F88819981AA81C959D0406F
:101A82008E0D9F1DA11DF7FCAA95C756DF4F8883B7
:101A92009983AA83C959D04008C00196A11D253255
:101AA20009F3FFEFEF1AFF0AD7CFC756DF4F88813E
:101AB2009981AA81C959D040FC012491A7FD2081B6
:101AC200253209F056C39C014A2F2F5F3F4F4F4FDB
:101AD200C256DF4F288339834A83CE59D040C75636
:101AE200DF4F288339834A83C959D040C756DF4F15
:101AF20088819981AA81C959D040FC012491A7FD0E
:101B020020812B3241F4CF57DF4F28813981C158D0
:101B1200D04024600BC02C32CCF02D3259F5CF5777
:101B2200DF4F28813981C158D0402160CF57DF4F24
:101B320039832883C158D0400196A11DC756DF4F73
:101B420088839983AA83C959D040D0CF203241F4E7
:101B5200CF57DF4F28813981C158D0402860E6CF66
:101B6200233291F4CF57DF4F28813981C158D040B9
:101B72002061DCCF203341F4CF57DF4F28813981F8
:101B8200C158D0402260D2CF2A3299F50196A11DC8
:101B9200C756DF4F88839983AA83C959D040D5019C
:101BA200ED91FC911197CF0102968D939C938081C8
:101BB2009181CB57DF4F99838883C558D04097FFD7
:101BC2003EC0CF57DF4F28813981C158D040B1E0A4
:101BD2002B27CF57DF4F39832883C158D0409195A7
:101BE20081959109CB57DF4F99838883C558D0409F
:101BF20026C0BC018A2F0E948417CB57DF4F9983DE
:101C02008883C558D040C756DF4F288139814A8121
:101C1200C959D040F901849147FD8081082E000CFA
:101C2200990BC0970A9758F42F5F3F4F4F4FC756F3
:101C3200DF4F288339834A83C959D040E4CFCF5735
:101C4200DF4F88819981C158D04080FF07C08D7FC6
:101C5200CF57DF4F99838883C158D040C756DF4F93
:101C620088819981AA81C959D040FC012491A7FD9C
:101C720020812E3209F058C0CD57DF4F19821882C9
:101C8200C358D0409C014A2F2F5F3F4F4F4FC7563A
:101C9200DF4F288339834A83C959D040F9015491CF
:101CA20047FD50815A32D1F40296A11DC756DF4F2B
:101CB20088839983AA83C959D040D501ED91FC91BB
:101CC2001197CF0102968D939C9380819181CD577C
:101CD200DF4F99838883C358D04026C0842FB9012F
:101CE2000E948417CD57DF4F99838883C358D04011
:101CF200C756DF4F288139814A81C959D040F9013D
:101D0200849147FD8081082E000C990BC0970A9799
:101D120058F42F5F3F4F4F4FC756DF4F2883398309
:101D22004A83C959D040E4CFCE0187569F4F0E94C3
:101D3200EC16182FC756DF4F2881C959D040C65616
:101D4200DF4F8881CA59D040C556DF4F9881CB59A1
:101D5200D040E22FF82F849197FD8081082E000C4D
:101D6200990B0E940D1A8936910509F45AC0B4F4F0
:101D72008336910509F466C144F48532910509F46C
:101D8200A1C18136910529F1B3C18436910509F4C7
:101D920048C0883691050CF42DC1AAC1803791053F
:101DA20009F4CBC04CF48E36910509F419C18F3673
:101DB200910509F47CC09CC18537910509F454C092
:101DC2008837910509F496C08337910509F090C1CF
:101DD20058C1612F70E0A501C6010E949018892B9D
:101DE20009F4B7C1C756DF4F88819981AA81C959C1
:101DF200D0409C014A2F2F5F3F4F4F4FC756DF4FB6
:101E0200288339834A83C959D040FC012491A7FD14
:101E12002081A601BE016F577F4FC4010E94151A8F
:101E220095C1612F70E0950141E050E0C6010E942A
:101E3200D112892B09F48DC1C756DF4F8881998150
:101E4200AA81C959D0400196A11DC756DF4F888388
:101E52009983AA83C959D040A601BE016F577F4F0B
:101E6200C4010E94121272C1612F70E0950140E01C
:101E720050E0C6010E94D112892B09F46AC1C756EB
:101E8200DF4F88819981AA81C959D0400196A11D4D
:101E9200C756DF4F88839983AA83C959D040A601C8
:101EA200BE016F577F4FC4010E94F1154FC1612FD0
:101EB20070E0950140E050E0C6010E94D112892BEA
:101EC20009F447C1C756DF4F88819981AA81C95950
:101ED200D0400196A11DC756DF4F88839983AA83FC
:101EE200C959D040A601BE016F577F4FC4010E945D
:101EF20022152CC1612F70E0950140E050E0C6012F
:101F02000E94D112892B09F424C1C756DF4F888160
:101F12009981AA81C959D0409C014A2F2F5F3F4F16
:101F22004F4FC756DF4F288339834A83C959D04060
:101F3200FC012491A7FD20814BC0950140E050E0B7
:101F420060EF70E0C6010E94D112892B09F401C131
:101F5200C756DF4F88819981AA81C959D04001961D
:101F6200A11DC756DF4F88839983AA83C959D040E0
:101F720086E02DE431E040E0F901DE01AD56BF4FCD
:101F8200742F0E94C019D6012C9111963C91119781
:101F920012964C91129713965C91139714966C912A
:101FA200149715967C91159716968C9116971796FD
:101FB2009C91A0E00E94D91951F400E010E0CF55A5
:101FC200DF4F288139814A81C15AD040B9C028E700
:101FD200A601BE016F577F4FC4010E94D210B6C046
:101FE200612F70E09501A1014E0D5F1DC6010E9497
:101FF200B614AFC0612F70E0A501C6010E9490180F
:10200200892B09F4A6C0C756DF4F88819981AA811E
:10201200C959D0409C014A2F2F5F3F4F4F4FC7569F
:10202200DF4F288339834A83C959D040FC01249168
:10203200A7FD2081A601BE016F577F4FC4010E94F8
:10204200151A84C0103809F084C0C756DF4F888142
:102052009981AA81C959D0400196A11DC756DF4F67
:1020620088839983AA83C959D040D501ED91FC9107
:102072001197CF0102968D939C938081F601808304
:102082005BC0103809F065C0C756DF4F888199815F
:10209200AA81C959D0400196A11DC756DF4F888336
:1020A2009983AA83C959D040D501ED91FC9111972A
:1020B200CF0103968D939C9320813181428100E070
:1020C20010E03EC0103809F044C0C756DF4F888187
:1020D2009981AA81C959D0400196A11DC756DF4FE7
:1020E20088839983AA83C959D040F601708224C09B
:1020F200D6017C92C256DF4F288139814A81CE595E
:10210200D040C756DF4F288339834A83C959D0400C
:10211200CF57DF4F19821882C158D040CB57DF4FBB
:1021220019821882C558D0408FEF9FEFCD57DF4FED
:1021320099838883C358D04001E010E0462D920174
:10214200BE016F577F4FC4010E948C158E0D9F1DDB
:1021520011C0C756DF4F88819981AA81C959D040E1
:102162000196A11DC756DF4F88839983AA83C95957
:10217200D040C7017101E80EF91EE214F3044CF4D9
:102182008FE490E090930101809300018FEF9FEF25
:1021920003C0170121CCC101CD55DF4FE2E10C9400
:0221A20005191D
:1021A400A4E1B0E0E8EDF0E10C94CE1898878F83B9
:1021B4007A8369835C8B4B8B122FDB011296ED9132
:1021C400FC91139714962D913C9115973E832D8382
:1021D400ED90FC90119716962D903C901797F7FD73
:1021E40003C0E894E1F802C0E1E0F0E0C7018071C7
:1021F40099279A878987E4FE1FC0AB89BC892C91F3
:1022040011963C91119712964C91129713965C91EA
:10221400139714966C91149715967C9115971696AE
:102224008C91169717969C91A0E00E94D91921F0E1
:102234008D819E81029702C08D819E8197012870B5
:1022440033273C872B87E3FC0197AB89BC894C90EF
:1022540011965C90119712966C90129713967C903D
:10226400139714968C90149715969C901597169620
:10227400AC9016971796BC90A981BA811896CD9008
:10228400DC901997B1E0CB1AD108D101AC0DBD1D7A
:102294001C929C838B839F01281B390B3E872D87BF
:1022A400C70182709927988B8F87812F012E000C8C
:1022B400990BDC01A154B109BA8BA98B32E0C31686
:1022C400D10434F489859A85892B09F04CC073C0F4
:1022D4009201A301B401C501A0E00E94D91981F1C2
:1022E400B1E0CB1AD108C2018F7099278A309105C9
:1022F40014F4C09602C0895A9F4FE989FA897A97E3
:1023040048F49C012062215631092A31310510F428
:102314000E94041AF101EC0DFD1D80832B813C8188
:10232400215031093C832B839201A301B401C501DF
:1023340004E00E94B21829013A014B015C01BECFAE
:102344008D859E85AB81BC818A0F9B1F181619064B
:102354003CF21A161B060CF0B5CFEF85F889EF2B6B
:1023640009F0BECFAFCFAB89BC892C9111963C91BB
:10237400119712964C91129713965C911397149699
:102384006C91149715967C91159716968C911697C7
:1023940017969C91A0E00E94D91969F0F101EC0D07
:1023A400FD1D31971083B2E0CB1AD108F101EC0D79
:1023B400FD1D80E38083EB85FC85EF2B41F0F1E08C
:1023C400CF1AD108F101EC0DFD1D80E28083A981B3
:1023D400BA8118962D913C911997215031092C19E5
:1023E4003D09C20CD31CA60160E80D811E818F81BA
:1023F40098850E942F149C01EF81F885808191813A
:1024040090FF09C0A981BA8112968D919C9113976E
:10241400821793070CF4C9016496E2E10C94051940
:10242400ADE0B0E0E8E1F2E10C94CE189A87898738
:102434007C836B83FA01DB011296CD90DC901397B9
:1024440014968D919C9115979E838D83ED90FC90AD
:102454001197FA82E98216960D90BC91A02DB88747
:10246400AF83208031804280538064807580868071
:1024740097808101B42DF52DE62D7B868C869D8673
:102484009101A201B301C401A0E00E94D9194CF446
:102494000E94A2198901B42FF52FE62F7B878C8720
:1024A4009D87D7FC04C0E894E1F8FA82E98291019F
:1024B400A201B301C401A0E0ED80FE800E94D919FD
:1024C4001CF0898182FF04C081E0E81AF10805C08C
:1024D40083FF03C091E0E91AF108CE0101965C0183
:1024E4008AE0C82ED12C2B2F3F2F4E2F5B856C8575
:1024F4007D858B819C810E948A13FC019101A2013C
:10250400B301C401A0E00E94D9191CF0898182FFA3
:1025140012C031970F8118850E0F1F1F9101A20160
:10252400B301C401A0E00E94D91914F08BE201C0E8
:102534008DE2D80108C083FF07C03197AF81B88509
:10254400AE0FBF1F80E28C93E980FA80AB81BC811F
:1025540018962D913C911997215031092E1B3F0B50
:102564008F819885E80FF91FAF0160E80D811E8106
:1025740089859A850E942F149C01A985BA858D911D
:102584009C9190FF07C0EB81FC818281938182172B
:0E25940093070CF4C9012D96E2E10C94051991
:1025A2000F931F93CF93DF93FC01D9016838710514
:1025B20031F194F461387105B1F12CF46038710590
:1025C20009F478C09FC06238710509F459C06438B3
:1025D200710509F46FC096C0603A710509F448C0EC
:1025E2002CF46039710509F44BC08CC0603C710554
:1025F20009F476C0603F710509F472C083C0CD91C1
:10260200DC911197CE0102968D939C93452B39F064
:102612009881892F880F880B908381835BC0888182
:102622008083118268C0CD91DC911197CE0104960E
:102632008D939C93452B99F088819981AA81BB81C6
:10264200AC01BD01770F440B542FBA0180839183F3
:10265200A283B383448345834683478328C008818A
:1026620019812A813B81008311832283338345C0F0
:10267200CD91DC911197CE0102968D939C9323C04C
:10268200CD91DC911197CE0108968D939C93788120
:1026920069815A814B813C812D819E818F8170831A
:1026A200618352834383348325839683878381E0C6
:1026B20090E02AC0CD91DC911197CE0102968D93C4
:1026C2009C93452BA1F099812881892F880F880B33
:1026D2002083918382838383848385838683E6CF69
:1026E200CD91DC911197CE0102968D939C93088136
:1026F2001981008311831282138214821582168239
:102702001782D5CF80E090E0DF91CF911F910F919A
:02271200089528
:10271400A2E1B0E0E0E9F3E10C94CE18FC010A8BED
:102724001B832C83732E642E552E462E7D83CC86DC
:10273400D886BF82AE82868197819B878A87D5019E
:102744004D915C91228133818085918501971C0193
:1027540037FF02C021E030E0EA85FB85E80FF91F6E
:1027640010824701E1E0F0E0FA83E983C9018E19A0
:102774009F099E878D87DA01A270BB27B88BAF872C
:10278400B885BB0FBB0BB98B1214130474F0A98169
:10279400BA81AB2B09F05CC0AE81BF818D919C9155
:1027A40011978F7E8D939C9353C02A893B814C81D2
:1027B400572D662D752D842D9D81A0E00E94D91979
:1027C400B1F1E1E02E1A3108FC85F987AF2EB88407
:1027D400C988DC2CEC2CFC2C0C2D1C2D2A893B816B
:1027E4004C81572D662D752D842D9D810E94B21923
:1027F400C90129839A83EA85FB85E20DF31D805D77
:10280400808381E0881A91082A893B814C81572D65
:10281400662D752D842D9D810E94B4192A8B3B83CE
:102824004C83752E662E572E482E9D83ADCF8D85F5
:102834009E85880D991D181619061CF21814190482
:102844000CF0A5CFEF85F889EF2B09F0BACF9FCF15
:0A285400C1016296E2E10C9405193F
:10285E002F923F924F926F927F928F92AF92BF9232
:10286E00CF92DF92EF92FF920F931F93CF93DF934E
:10287E00CDB7DEB766970FB6F894DEBF0FBECDBFED
:10288E005C013A01862E6901C701817099279C8BE4
:10289E008B8BE0FC1DC020173107D4F47801EC18A7
:1028AE00FD08FE8AED8AA70191E1E916F10410F008
:1028BE0040E150E060E270E0CE0101969A8B898B88
:1028CE000E94FB1989899A891C0120E8422E0BC0AF
:1028DE009601682DA301C5010E941218C016D106DB
:1028EE00ECF2C60125C090E1E916F10458F020E1A2
:1028FE0030E0642DA101C5010E94121880E1E81A92
:10290E00F108F1CF2D893E892F70332789899A8955
:10291E00AC0160E8C5010E9412188B899C89892B35
:10292E0031F49601682DA301C5010E941218C80149
:10293E0066960FB6F894DEBF0FBECDBFDF91CF9176
:10294E001F910F91FF90EF90DF90CF90BF90AF90BF
:0E295E008F907F906F904F903F902F90089534
:10296C00CF93DF93DC01F90164387105D9F164F47C
:10297C006138710521F16238710509F440C0603885
:10298C00710509F054C02EC060397105C1F184F491
:10299C006838710509F04BC0C081D181CE01029617
:1029AC0091838083E881F981ED93FC9340833CC053
:1029BC00603A7105B9F0603C7105A1F038C0C08176
:1029CC00D181CE01029691838083E881F981ED93C8
:1029DC00FC93052E000C660B770B408351836283AE
:1029EC00738322C0C081D181CE01029691838083F2
:1029FC00E881F981ED93FC935183408315C0C0812C
:102A0C00D181CE01029691838083E881F981ED9387
:102A1C00FC9351834083852F880F880B828383839B
:102A2C00848385838683878381E090E002C080E085
:082A3C0090E0DF91CF910895B5
:102A4400A2E0B0E0E8E2F5E10C94CE181C014B01E1
:102A5400FA01DB0112962D913C91139714964D9037
:102A64005C9015978D919C9111979A838983169602
:102A74006D907C90179737FD03C08D7F9A8389836F
:102A8400008111812281338144815581668177815E
:102A9400FE0131965F0188E0C82ED12C7201C40179
:102AA4000E948A13298124FF06C00197F301E80FCD
:102AB400F91F20E32083298123FF06C00197F30136
:102AC400E80FF91F20E22083E980FA80D4011896E8
:102AD4002D913C91199721503109281B390B860DF2
:102AE400971DAC0160E88201C1010E942F149C0172
:102AF400F1018081918190FF08C0D40112968D91DB
:102B04009C911397821793070CF4C9012296E2E172
:042B14000C940519FF
:102B18002F923F924F926F927F928F92AF92BF9275
:102B2800CF92DF92EF92FF920F931F93CF93DF9391
:102B3800CDB7DEB727970FB6F894DEBF0FBECDBF6F
:102B48006C017B013901842E980186E4282E81E0EE
:102B5800382E80E0482E87E0F101AE014F5F5F4FCD
:102B6800DA01742D0E94C019F70102811381A48033
:102B7800B580E080F18061147104810419F43A0190
:102B8800F0E88F2E2115310529F4882DB3010E9414
:102B980051199C0117FD04C00217130708F4980186
:102BA8008501682DA301C6010E942F1427960FB630
:102BB800F894DEBF0FBECDBFDF91CF911F910F916B
:102BC800FF90EF90DF90CF90BF90AF908F907F9065
:0A2BD8006F904F903F902F900895EA
:102BE200A2E0B0E0E7EFF5E10C94CE183C014B0116
:102BF200FA01DB0112962D913C91139714964D9098
:102C02005C9015978D919C9111979A838983169662
:102C12002D903C90179737FD03C08D7F9A8389834F
:102C220000811181228133814481558166817781BE
:102C3200FE0131965F018AE0C82ED12C7201C401D7
:102C42000E948A13E980FA80D40118962D913C9152
:102C5200199721503109281B390B820D931DAC01A4
:102C620060E88201C3010E942F149C01F30180815C
:102C7200918190FF08C0D40112968D919C91139777
:102C8200821793070CF4C9012296E2E10C9405190C
:102C92006F927F928F92EF92FF920F931F93CF9337
:102CA200DF93CDB7DEB761970FB6F894DEBF0FBEE4
:102CB200CDBFFE01319651E1DF011D925A95E9F730
:102CC200A2E0B1E0BA83A9839C838B8377FF09C01A
:102CD2008FE490E090930101809300018FEF9FEFCA
:102CE20019C03901842E7C01615071097F836E8382
:102CF2009801682DA301CF010E9439194885598591
:102D02002E813F814217530708F49A01F701E20F1F
:102D1200F31F108261960FB6F894DEBF0FBECDBFCF
:102D2200DF91CF911F910F91FF90EF908F907F9045
:042D32006F90089501
:102D360088249924F401E401B0E49F93AA279A1504
:102D46008B049C04ED05FE05CF05D007A10798F47A
:102D5600AD2FDC2FCF2FFE2FE92D982C892E982F03
:102D6600872F762F652F542F432F322F2227B850C7
:102D760031F7BF9127C01B2EBF91BB27220F331FF0
:102D8600441F551F661F771F881F991F881C991C93
:102D9600EE1FFF1FCC1FDD1FAA1FBB1F8A149B043B
:102DA600EC05FD05CE05DF05A007B10748F08A183A
:102DB6009B08EC09FD09CE09DF09A00BB10B2160C8
:102DC6001A94E1F62EF49401AF01BE01CD01000C78
:022DD60008955E
:102DD800CF92DF92EF92DC0190E0292F30E0220FB2
:102DE800331F6901032E000CEE086E2DA601405D0D
:102DF8005E4F6F4F6A01E62EFA018491E7FC8081ED
:102E080081110DC02F5F3F4F032E000C440B205D36
:102E18003E4F4F4FF901849147FD808124C0CD90EA
:102E2800DD90EC901297F6014491E7FC4081841301
:102E380015C02F5F3F4F032E000C440B205D3E4F03
:102E48004F4FF901949147FD90815FEFC51AD50A5C
:102E5800E50ACD92DD92EC92129701C09F5F9B30FC
:0E2E680008F4BBCF892FEF90DF90CF90089534
:102E76000F931F93CF93DF93DB012D913C91119715
:102E860030FF25C017964D915C91189715962D9198
:102E96003C9116974217530778F41296ED91FC91E0
:102EA6001397808312962D913C9113972F5F3F4F76
:102EB60013963C932E93129717962D913C91189743
:102EC6002F5F3F4F18963C932E93179715C01D966C
:102ED600ED91FC911E97309719F48FEF9FEF0CC080
:102EE6008B01EC010995892BC1F7F8018781908543
:102EF600019690878783CE01DF91CF911F910F9125
:022F060008952C
:102F0800CF939B01482FF901849147FD808180323E
:102F1800C9F1682F082E000C770B695071096530CC
:102F2800710580F18B3249F5A0E0B0E02F5F3F4F8B
:102F38004F4F02C0A0E0B0E080E090E0CAE0F901A5
:102F4800649147FD6081062E000C770B6053710970
:102F58006A30710560F4C89FF001C99FF00D112413
:102F68002F5F3F4F4F4FCF01861B970BE8CFAB2BFF
:102F780069F491958195910909C08D32D9F6A1E03E
:102F8800B0E0D4CF2F5F3F4F4F4FBDCFCF910895C3
:102F98001F921FB61F9211242F938F939F9387EF31
:102FA8009FEF909385008093840080910801909111
:102FB8000901029761F58091060190910701019638
:102FC8009093070180930601883E934069F48091AD
:102FD80002019091030101969093030180930201ED
:102FE800109207011092060180910201909103014D
:102FF800CC9769F480910401909105010196909312
:1030080005018093040110920301109202019F911F
:0C3018008F912F911F901FBE1F901895E4
:103024006F927F928F92CF92DF92EF920F931F93C2
:10303400CF93DF938C016A01E62EE9013A01862ED3
:10304400620E731E811C37FD8A94C614D704E804EB
:1030540079F0F6018491E7FC8081B801082E000C18
:10306400990B0E943B178FEFC81AD80AE80AEDCFD4
:10307400CE01DF91CF911F910F91EF90DF90CF9010
:083084008F907F906F9008957A
:10308C00CF93C82F87EC90E00197F1F700C00000B8
:10309C005D988BB1807F8BB98BB19C2F92959F7073
:1030AC00892B8BB90E94E51987EC90E00197F1F719
:1030BC0000C000008BB1807F8BB98BB1CF70C82B57
:0A30CC00CBB90E94E519CF910895D9
:1030D600CF93C82F87EC90E00197F1F700C000006E
:1030E6005D9A8BB1807F8BB98BB19C2F92959F7027
:1030F600892B8BB90E94E51987EC90E00197F1F7CF
:1031060000C000008BB1807F8BB98BB1CF70C82B0C
:0A311600CBB90E94E519CF9108958E
:10312000FA0160387105CCF0623871051CF0633823
:10313000710599F4A081B1819D012C5F3F4F3183CE
:1031400020834D915D916D917C91FC014083518371
:103150006283738381E090E0089580E090E00895B9
:1031600097FB10F8169400080F93083098F0085059
:10317000232F342F452F562F672F782F892F902DEF
:10318000F4CF0594979587957795679557954795CB
:0C319000379527950A95AAF70F9108952E
:10319C002F923F924F925F926F927F928F929F925B
:1031AC00AF92BF92CF92DF92EF92FF920F931F9349
:1031BC00CF93DF93CDB7DEB7CA1BDB0B0FB6F894FA
:0831CC00DEBF0FBECDBF099468
:1031D400CF92DF92EF926B01E82EFB018491E7FC22
:1031E4008081882361F00E946B188FEFC81AD80A77
:1031F400E80AF6018491E7FC80818111F4CFEF9015
:06320400DF90CF90089559
:10320A002A88398848885F846E847D848C849B846C
:10321A00AA84B984C884DF80EE80FD800C811B817A
:10322A00AA81B981CE0FD11D0FB6F894DEBF0FBEA9
:06323A00CDBFED01089577
:103240008AB18F608AB98BB1807F8BB98AB1806671
:103250008AB98BB18F798BB983E30E94461882E3D8
:103260000E94461888E20E9446188EE00E94461886
:023270000895BF
:10327200A2E0B0E0EFE3F9E10C94DC188C013A83B0
:1032820029839E012F5F3F4F0E94C10CF8012081CC
:1032920024FF02C08FEF9FEF2296E4E00C941319F3
:1032A200CF92DF92EF926B01E82EA82FCB01FC01A7
:1032B2002491A7FD2081222319F00196A11DF7CFA9
:0C32C2008C199D09EF90DF90CF900895CB
:1032CE0097FB072E16F4009407D077FD09D00E94C5
:1032DE007B1907FC05D03EF4909581959F4F08957C
:0832EE00709561957F4F089572
:1032F600AA1BBB1B51E107C0AA1FBB1FA617B70716
:1033060010F0A61BB70B881F991F5A95A9F7809531
:083316009095BC01CD01089562
:10331E00A0E0B0E0E5E9F9E10C94DE189E01265F2D
:10332E003F4F4F81588569858D819E810E94CD19B1
:06333E00E2E00C941519F9
:103344006095709580959095309540955095219510
:103354003F4F4F4F5F4F6F4F7F4F8F4F9F4F08959A
:10336400689401C0E8948F929F92CF93DF930E9458
:0C3374009B16DF91CF919F908F900895E1
:10338000992777FD05C005900D920197E1F7089503
:0A33900001900D920197E1F70895F6
:10339A000F931F9389019A01462F6FEF7FE70E94CF
:0833AA0049161F910F910895CF
:1033B2000024A7FD00942A1730054005500560053A
:0833C2007005800590050895D7
:1033CA005E9A8AE18A95F1F700C05E988AE18A9549
:0633DA00F1F700C00895A8
:1033E000EC010E941D1A0E941C1ACE010E941E1A96
:0633F000CE010E941A1A32
:1033F600FC01480F591FE417F50711F06193FBCF45
:02340600089527
:103408009C01215631092A31310510F48F7599270D
:02341800089515
:10341A009C01215431092A31310508F4806208954A
:06342A0080E090E008952F
:043430000C940000F8
:043434000E945F0093
:023438000895F5
:02343A000895F3
:02343C000895F1
:00000001FF
